:020000040000FA
:100000000A128A11FC2F00308A000408840A820731
:100010000034483465346C346C346F3420345734D5
:0C0020006F3472346C34643400340034EB
:100CC20000300A128A116E260A128A1101300A12A3
:100CD2008A116E260A128A110800F3008312031386
:100CE200861273080A128A11A4260A128A11831222
:100CF200031306160830F200C930F100F10B7F2E03
:100D0200F20B7F2E842E83120313061208000A129E
:100D12008A118F270A128A110A128A1161260A126F
:100D22008A11F401F40A01300A128A11EB260A121E
:100D32008A1101300A128A11C6260A128A11A02EBD
:100D42000A128A110028F000701CA82EA92EAD2EBE
:100D5200831203130614B02E831203130610F01C21
:100D6200B32EB42EB62E8614B72E8610701DBA2E50
:100D7200BB2EBD2E0615BE2E0611F01DC12EC22E93
:100D8200C42E8615C52E86110800F800F601F7015B
:100D9200DD2E7608780784000A128A1103200A12CF
:100DA2008A110A128A113C270A128A110130F607A7
:100DB2000318F70A0030F7077608780784000A124A
:100DC2008A1103200A128A11003A031DE92EEA2E23
:100DD200CA2E0800F7007703031DF02EF12E132F01
:100DE20074087F3EF5007508FA007A08F5000430B1
:100DF2000310F50CFF3E031DF92E7508F600760868
:100E0200F9007A080F39F5007508F80079080A1216
:100E12008A116E260A128A1178080A128A116E261F
:100E22000A128A1102307706031D182F192F3B2F41
:100E32007408BF3EF5007508FA007A08F500043020
:100E42000310F50CFF3E031D212F7508F6007608EE
:100E5200F9007A080F39F5007508F80079080A12C6
:100E62008A116E260A128A1178080A128A116E26CF
:100E72000A128A110800F50075080F39F10071088D
:100E8200F3007508F039F1007108F40083120313BE
:100E920086167408F10004300310F10CFF3E031DA6
:100EA2004D2F71080A128A11A4260A128A1183127E
:100EB200031306160830F200C930F100F10B5F2F60
:100EC200F20B5F2F642F8312031306120830F20015
:100ED200C930F100F10B6B2FF20B6B2F702F7308DF
:100EE2000A128A11A4260A128A1183120313061601
:100EF2000830F200C930F100F10B7D2FF20B7D2F8B
:100F0200822F8312031306120830F200C930F10057
:100F1200F10B892FF20B892F8E2F080083160313F2
:100F220086018612061200300A128A11A4260A12BB
:100F32008A110230F600D430F5008530F400F40B4B
:100F4200A02FF50BA02FF60BA02F0830F500C9300B
:100F5200F400F40BAA2FF50BAA2FAF2F03300A12BD
:100F62008A116E260A128A114E30F500EB30F40017
:100F7200F40BB92FF50BB92F03300A128A116E2622
:100F82000A128A110330F5005530F400F40BC72F12
:100F9200F50BC72F03300A128A116E260A128A1124
:100FA20002300A128A116E260A128A1102300A12BD
:100FB2008A116E260A128A1108300A128A116E26C6
:100FC2000A128A1100300A128A116E260A128A1136
:100FD2000C300A128A116E260A128A1100300A1285
:100FE2008A116E260A128A1106300A128A116E2698
:0E0FF2000A128A11080083010A128A11882E41
:02400E00713F00
:00000001FF
